:100000000208CEA9071200767F517E00120B62E42F
:10001000FAE930E00512007380031200767F517E0A
:1000200000120B62E9C313F90AEAB408E412007380
:100030007F517E00120B622243C40475C58375C6CE
:10004000FF439C0243A88043C4082253B3BF43B478
:09005000402253B3F743B4082227
:10005B0002054E53B3EF43B4102243B31053B4EF26
:10006B0022A2949220A22022D29622C29622D2932E
:07007B0022C29322D294225D
:100083000206DCBB010689828A83E0225002E72252
:10009300BBFE02E32289828A83E49322BB010CE53F
:1000A3008229F582E5833AF583E0225006E9258229
:1000B300F8E622BBFE06E92582F8E222E58229F56D
:1000C30082E5833AF583E49322BB010689828A831E
:1000D300F0225002F722BBFE01F322F8BB010DE52B
:1000E3008229F582E5833AF583E8F0225006E92573
:1000F30082C8F622BBFE05E92582C8F222BC000BAA
:10010300BE0029EF8DF084FFADF022E4CCF875F04A
:1001130008EF2FFFEE33FEEC33FCEE9DEC98400529
:10012300FCEE9DFE0FD5F0E9E4CEFD22EDF8F5F0EF
:10013300EE8420D21CFEADF075F008EF2FFFED33F7
:10014300FD4007985006D5F0F222C398FD0FD5F075
:10015300EA22C2D5EC30E709B2D5E4C39DFDE49CA5
:10016300FCEE30E715B2D5E4C39FFFE49EFE120117
:1001730000C3E49DFDE49CFC800312010030D5071D
:10018300C3E49FFFE49EFE22C5F0F8A3E028F0C578
:10019300F0F8E582158270021583E038F022E88FCB
:1001A300F0A4CC8BF0A42CFCE98EF0A42CFC8AF0F8
:1001B300EDA42CFCEA8EF0A4CDA8F08BF0A42DCCFA
:1001C3003825F0FDE98FF0A42CCD35F0FCEB8EF053
:1001D300A4FEA9F0EB8FF0A4CFC5F02ECD39FEE439
:1001E3003CFCEAA42DCE35F0FDE43CFC2275F0087E
:1001F300758200EF2FFFEE33FECD33CDCC33CCC56C
:100203008233C5829BED9AEC99E58298400CF58286
:10021300EE9BFEED9AFDEC99FC0FD5F0D6E4CEFBF8
:10022300E4CDFAE4CCF9A88222B800C1B90059BAE6
:10023300002DEC8BF084CFCECDFCE5F0CBF9781814
:10024300EF2FFFEE33FEED33FDEC33FCEB33FB100E
:10025300D703994004EB99FB0FD8E5E4F9FA227828
:1002630018EF2FFFEE33FEED33FDEC33FCC933C93A
:1002730010D7059BE99A4007EC9BFCE99AF90FD844
:10028300E0E4C9FAE4CCFB2275F010EF2FFFEE3364
:10029300FEED33FDCC33CCC833C810D7079BEC9AA3
:1002A300E899400AED9BFDEC9AFCE899F80FD5F02C
:1002B300DAE4CDFBE4CCFAE4C8F922EB9FF5F0EAEB
:1002C3009E42F0E99D42F0E89C45F022E8600FEC85
:1002D300C313FCED13FDEE13FEEF13FFD8F122E879
:1002E3006010ECA2E713FCED13FDEE13FEEF13FF1A
:1002F300D8F022ECF0A3EDF0A3EEF0A3EFF022A8E8
:10030300828583F0D083D08212031912031912035A
:1003130019120319E473E493A3C583C5F0C583C815
:10032300C582C8F0A3C583C5F0C583C8C582C822EA
:10033300D083D082F8E4937012740193700DA3A359
:1003430093F8740193F5828883E473740293B5F090
:10035300067403936860E9A3A3A3A380D8201103C1
:1003630002054D900134E020E003D38001C3B39232
:1003730006900134E064016004E0B41205D2040283
:100383000440900134E06004E0B41305C2040204A5
:1003930040900134E0D39401401FE09412501AE0DE
:1003A300FFC31314FF9000B7E0FEA807088002C341
:1003B30013D8FC139204020440900134E0B41407F0
:1003C300D2001200658076900134E0D39414406D1E
:1003D300E094465068300606A2049209805F300913
:1003E3005C300459900134E024EAFFE434FFC31382
:1003F300EF135407FFF87401088002C333D8FCFBE2
:10040300900134E024EAFFE434FFFE7C007D101207
:10041300015574B42FF58274003EF583E04BFB90D5
:100423000134E024EAFFE434FFFE7C007D10120176
:100433005574B42FF58274003EF583EBF0900134CC
:10044300E0C394465004E004F022D2137B017A0007
:1004530079B47D02120BC39000B6E06F600302040F
:10046300F19000B4E0D3941A5013E070069000A604
:10047300F0800A9000B4E0241D9000A6F09000B52F
:10048300E0B4011E201A67D208E49000B9F090008E
:10049300A6F0900135E04408F09000B7E054BFF0B7
:1004A300804C9000B5E0B40212200842C20AD21A6E
:1004B300D207900135E054F7F080339000B5E0B4F3
:1004C3000315900135E020E325E49000B3F090009C
:1004D300B7E04440F080179000B5E0B404109000FA
:1004E300B3E0C3940240079000B7E054BFF07BFF32
:1004F3007A0C79227F077E007D007C0012096890C8
:1005030000B4E0FFE4FCFDFE12080C7F0A120003B6
:100513007BFF7A0C792A7F077E007D007C0012091D
:10052300689000B5E0FFE4FCFDFE12080C7F0A12A0
:100533000003E49000B4F0A3F0A3F0900134F0C200
:1005430011D206C20012005ED20422C0E0C0F0C085
:1005530083C082C0D075D000C000C001C002C003F8
:10056300C004C005C006C007C09130100302063B9B
:10057300AFC3EF75F010A4FFE5C2540FFDE5F0EF34
:100583004DFF9000ADE5F0F0A3EFF0D39000AEE0A7
:1005930094E89000ADE09403500DC3A3E0940A9057
:1005A30000ADE094005010900135E04410F090004D
:1005B300B7E04410F0800E900135E054EFF0900066
:1005C300B7E054EFF0C39000AEE0949A9000ADE032
:1005D30094015010900135E04402F09000B7E044DC
:1005E30002F0800E900135E054FDF09000B7E05426
:1005F300FDF0D39000AEE0945E9000ADE094015026
:1006030004D2018014D39000AEE094889000ADE052
:1006130094014005300102C2019000ADE0FEA3E069
:10062300FF7B017A0079BE120AF99000AFEFF0E088
:1006330064017071806F806DAFC3EF75F010A4FF1C
:10064300E5C2540FFDE5F0EF4DFF9000A9E5F0F092
:10065300A3EFF0D39000AAE094E89000A9E09403FC
:10066300500DC3A3E0940A9000A9E09400501090A9
:100673000135E04420F09000B7E04420F0800E9074
:100683000135E054DFF09000B7E054DFF09000A9AB
:10069300E0FEA3E0FF7B017A0079BD120AF9900026
:1006A300AFEFF0E0FFD218A2AF921EC2AF75C7AA98
:1006B30075C755759100A21E92AFC2EFD091D007B6
:1006C300D006D005D004D003D002D001D000D0D0C2
:1006D300D082D083D0F0D0E032C0E0C083C082C0EB
:1006E300D075D000C007C0919000BAE004F0E0C319
:1006F300941050030207CAE4F0D20F900139E004CA
:10070300F0A3E004F09000ABE004F0A3E004F09069
:100713000139E094054033D202E4F0300B14900029
:10072300A7E094115005E004F08007C20B9000A7E6
:10073300E4F030071590013CE0C3941E5005E0043B
:10074300F08007C20790013CE4F090013AE0C394C3
:100753000A405AD205E4F09000BFE004F0E094327E
:10076300404BD212E4F09000C1E004F0A3E004F0A7
:10077300A3E004F09000B0E004F09000C1E0940224
:100783004004E4F0D2149000C2E0C394034004E4B4
:10079300F0D2159000C3E0C394054004E4F0D217EF
:1007A3009000B0E0C3943C4004E4F0D20E9000AB60
:1007B300E0C394324004D20CE4F09000ACE0C39464
:1007C300644004D20DE4F090013BE004F0E0C394F4
:1007D300604002E4F030030E9000BBE0FF90013B69
:1007E300E0B50702C203A2AF921EC2AF75C7AA75D6
:1007F300C755759100A21E92AF53C4EFD091D00795
:10080300D0D0D082D083D0E0329002401202F6E4FE
:10081300FF7BE87A03F9F8900240E0FCA3E0FDA334
:10082300E0FEA3E0FF12022CEF2430FF1200037F4F
:10083300C87E00120B62E47BE87A03F9F890024069
:10084300E0FCA3E0FDA3E0FEA3E0FF12022CAC005A
:10085300AD01AE02AF03E47B64FAF9F812022CEFA8
:100863002430FF1200037FC87E00120B62E47B6416
:10087300FAF9F8900240E0FCA3E0FDA3E0FEA3E058
:10088300FF12022CAC00AD01AE02AF03E47B0AFA07
:10089300F9F812022CEF2430FF1200037FC87E0008
:1008A300120B62E47B0AFAF9F8900240E0FCA3E041
:1008B300FDA3E0FEA3E0FF12022CAF03EF2430FF01
:1008C3001200037FC87E00120B6222787FE4F6D801
:1008D300FD9000007FFF7E04E4F0A3DFFCDEFA75E9
:1008E30081240209230209F6E493A3F8E493A340C5
:1008F30003F68001F208DFF48029E493A3F8540798
:10090300240CC8C333C4540F4420C8834004F45692
:10091300800146F6DFE4800B0102040810204080CA
:10092300900A80E47E019360BCA3FF543F30E50945
:10093300541FFEE493A360010ECF54C025E060A8CA
:1009430040B8E493A3FAE493A3F8E493A3C8C5825D
:10095300C8CAC583CAF0A3C8C582C8CAC583CADFCB
:10096300E9DEE780BE900240EBF0A3EAF0A3E9F0F2
:10097300A31202F690024712030200000000900245
:100983004712030200000000900243E0FCA3E0FDD5
:10099300A3E0FEA3E0FFA3E0F8A3E0F9A3E0FAA33A
:1009A300E0FBC31202BE504A900247E0A3E0A3E07B
:1009B300FEA3E0FF900240E0FBA3E0FAA3E0F98F7F
:1009C300828E8312009FFF1200037FC87E00120BEA
:1009D30062900247E0FCA3E0FDA3E0FEA3E0240154
:1009E300FFE43EFEE43DFDE43CFC9002471202F6C8
:1009F30080962212004B12003853B1F743B208C25B
:100A03000012005212005E12007912007FC21130F0
:100A1300000512006C9204300F2EC20F12036030D7
:100A23001826C218201010D21053E8F753E8FB43DE
:100A3300E80253E8FE800EC21053E8F753E8FB4385
:100A4300E80243E80143E840300C02C20C300D0CCD
:100A5300C20D201107D211E4900134F0301202C20A
:100A63001220000B30040512007F8003120C1F308C
:100A73000605120079809812007C80932260700032
:100A8300C40353034C0345033E0336032E032703DA
:100A93001F0316030E030602FD02F402EB02E20239
:100AA300DB02D302CA02C002B702AD02A3029A025A
:100AB300900286027C02720268025E0253024902BD
:100AC3003F0235022B02210217020D020301F90135
:100AD300EF01E501DB01D201C801BF01B501AC01A2
:100AE300A3019A0191018801800177016F016601D9
:100AF3005EC11BC11C0090023DEBF0A3EAF0A3E929
:100B0300F0C39000C5E09F9000C4E09E400DD390D9
:100B13000133E09F900132E09E401190023DE0FBE3
:100B2300A3E0FAA3E0F9E41200CCFF227D01ED2556
:100B3300E024C4F582E43400F583E0FAA3E0D39F14
:100B4300EA9E40050DEDB438E5ED240AFF90023D21
:100B5300E0FBA3E0FAA3E0F9EF1200CC7F012290BF
:100B6300024BEEF0A3EFF043C92090024BE0FEA34B
:100B7300E0FFFBE4C374FF9BFF74FF9EFEE494005D
:100B8300FDE49400FCEFE48FCC90024BE0FEA3E085
:100B9300FFFBE4C374FF9BFF74FF9EFEE49400FD20
:100BA300E49400FC78081202E28FCD43C804E5C840
:100BB300C4131313540130E0F553C87F53C8FB2209
:100BC300900240EBF0A3EAF0A3E9F0A3EDF0E4A375
:100BD300F0FC900243E0FFECC39F503A900240E0E8
:100BE300FBA3E0FAA3E0F9120086FF7E089002441B
:100BF300E0FD6F5401FBEDC313F0AD03ED6004E0C2
:100C0300648CF0EFC313FFDEE4900241E475F0015E
:100C130012018B0C80BC900244E0FF22C294226438
:0F0C2300617461313A200064617461323A2000DB
:00000001FF
