:100000000208E6E52224A3F582E43401F583E00545
:1000100022229001A03007039001A3E475F00112A1
:1000200005E70205BC2000E97F2ED2008018EF54BE
:100030000F2490D43440D4FF30040BEF24BFB41A03
:100040000050032461FFE523600215230526E52601
:100050007002052530070E9001A0E475F00112052D
:10006000E7EF0205D50209B57403D2078003E4C2A5
:1000700007F5229001A01205FEE4F523F525F526EB
:10008000E52360077F2012004680F57524FFC2013A
:10009000C200C202C203C205C206C208120012FF99
:1000A000700D3007057F00120057AF26AE2522B431
:1000B000255FC2D5C204120012FF24D0B40A00503A
:1000C0001A75F00A782330D50508B6FF0106C6A4D4
:1000D00026F620D5047002D20380D924CFB41A00AA
:1000E000EF5004C2E5D204020258D20180C6D20009
:1000F00080C0D20280BCD2D580BAD20580B47F2025
:100100001200462002077401B5230040F1120003DB
:10011000FF120046020080D208D20680951200032A
:10012000FB120003FA120003F94A4B700679297A90
:10013000037BFF20022EE523602A7E008E827583DA
:100140000012036860060EEE652470F0C2D5EBC0A5
:10015000E0EAC0E0E9C0E0EE12029FD0E0F9D0E0B2
:10016000FAD0E0FB1205BCFF60AAEBC0E0EAC0E0F9
:10017000E9C0E0120046D0E02401F9D0E03400FAF2
:10018000D0E0FBE5240460DCD524D980877BFF7AAE
:1001900002799BD202809C791080027908C206C243
:1001A000088008D2D5790A8004790AC2D5E52404EA
:1001B0007002F524E4FAFDFEFF120003FC7B082028
:1001C0000113120003FD7B1030000A120003FE121F
:1001D0000003FF7B20EC3382D592D55013C3E4306B
:1001E00000069FFFE49EFEE42001039DFDE49CFCCD
:1001F000E4CBF8C201EC700CCFCECDCCE824F8F8FB
:1002000070F38017C3EF33FFEE33FEED33FDEC33B5
:10021000FCEB33FB994002FB0FD8E9EB300105F80A
:10022000D0E0C448B201C0E00AEC4D4E4F78207BCC
:100230000070C2EAB5240040BCC0E01202A1D0F0B8
:10024000D0E0200104C4C0E0C4B201C0F012002F0D
:10025000D0F0D5F0EB020080120607011D53019784
:100260005800EE4C00EA42019B4F01A34401A34910
:1002700001034301A955018D46018D45018D4703B9
:10028000495000F22D00F62E01192B00FA23011718
:100290002003322A00B248000001113F3F3F00799D
:1002A0000AA2D5200314300509B910020404B908C4
:1002B0000104A2D52006025001042002689202B572
:1002C00023005034C0E07F203003197F30A2027237
:1002D000067205500F1202F8C202C206C205C20819
:1002E0007F30800F300503E9C0E01200463005037F
:1002F000D0E0F9D0E0B523CC3005177F30B9100C31
:100300001200467F583004077F788003B908031233
:1003100000463002057F2D0200467F202008F87F2E
:100320002B2006F322920280CF286E756C6C290078
:10033000D2011200033001F8C201782330D5010840
:10034000F60200B22D504349581200032403B405AD
:10035000004001E490034493120037743A120037CE
:10036000D203752304020197BB010CE58229F582B3
:10037000E5833AF583E0225006E92582F8E622BBC0
:10038000FE06E92582F8E222E58229F582E5833A34
:10039000F583E49322F8BB010DE58229F582E5831C
:1003A0003AF583E8F0225006E92582C8F622BBFE22
:1003B00005E92582C8F222BC000BBE0029EF8DF0B2
:1003C00084FFADF022E4CCF875F008EF2FFFEE3398
:1003D000FEEC33FCEE9DEC984005FCEE9DFE0FD547
:1003E000F0E9E4CEFD22EDF8F5F0EE8420D21CFE1B
:1003F000ADF075F008EF2FFFED33FD400798500684
:10040000D5F0F222C398FD0FD5F0EA22C5F0F8A38B
:10041000E028F0C5F0F8E582158270021583E03817
:10042000F022E88FF0A4CC8BF0A42CFCE98EF0A491
:100430002CFC8AF0EDA42CFCEA8EF0A4CDA8F08B65
:10044000F0A42DCC3825F0FDE98FF0A42CCD35F0AB
:10045000FCEB8EF0A4FEA9F0EB8FF0A4CFC5F02E3C
:10046000CD39FEE43CFCEAA42DCE35F0FDE43CFCA5
:100470002275F008758200EF2FFFEE33FECD33CDED
:10048000CC33CCC58233C5829BED9AEC99E582983A
:10049000400CF582EE9BFEED9AFDEC99FC0FD5F039
:1004A000D6E4CEFBE4CDFAE4CCF9A88222B800C1B0
:1004B000B90059BA002DEC8BF084CFCECDFCE5F01D
:1004C000CBF97818EF2FFFEE33FEED33FDEC33FC64
:1004D000EB33FB10D703994004EB99FB0FD8E5E40D
:1004E000F9FA227818EF2FFFEE33FEED33FDEC33EF
:1004F000FCC933C910D7059BE99A4007EC9BFCE97E
:100500009AF90FD8E0E4C9FAE4CCFB2275F010EFB9
:100510002FFFEE33FEED33FDCC33CCC833C810D7FC
:10052000079BEC9AE899400AED9BFDEC9AFCE89950
:10053000F80FD5F0DAE4CDFBE4CCFAE4C8F922E810
:10054000600FECC313FCED13FDEE13FEEF13FFD8A9
:10055000F122ECF0A3EDF0A3EEF0A3EFF022A882DD
:100560008583F0D083D0821205751205751205754A
:10057000120575E473E493A3C583C5F0C583C8C5AC
:1005800082C8F0A3C583C5F0C583C8C582C822D080
:1005900083D082F8E4937012740193700DA3A39337
:1005A000F8740193F5828883E473740293B5F006BE
:1005B0007403936860E9A3A3A3A380D8BB01068951
:1005C000828A83E0225002E722BBFE02E322898274
:1005D0008A83E49322BB010689828A83F022500237
:1005E000F722BBFE01F322F8E0FBA3A3E0F925F01C
:1005F000F0E582158270021583E0FA38F022EBF004
:10060000A3EAF0A3E9F022D083D082F8E493701239
:10061000740193700DA3A393F8740193F5828883FA
:10062000E4737402936860EFA3A3A380DF9001A03A
:100630001205529001A4E014605E14700302074397
:10064000240260030207D5759850438920438780B0
:10065000438E10A2AF920CC2AF75C7AA75C755E4FE
:10066000F591A20C92AF53C4DF7B10FAF9F8900118
:10067000A0E0FCA3E0FDA3E0FEA3E0FF1204AD9028
:1006800001A5E0F8A3E0F9A3E0FAA3E0FB1204ADB2
:10069000EFF404F58DD28E2275985043878053C4B1
:1006A000F8A2AF920CC2AF75C7AA75C755E4F59111
:1006B000A20C92AF43C4207B10FAF9F89001A0E09D
:1006C000FCA3E0FDA3E0FEA3E0FF1204AD9001A5B2
:1006D000E0F8A3E0F9A3E0FAA3E0FB1204ADC3E461
:1006E0009FFFE49EFE74019DFDE49CFC78081205CA
:1006F0003F8FC6E47B10FAF9F89001A0E0FCA3E07C
:10070000FDA3E0FEA3E0FF1204AD9001A5E0F8A375
:10071000E0F9A3E0FAA3E0FB1204ADC3E49FFFE419
:100720009EFE74019DFDE49CFCEFE48FC5A2AF9298
:100730000CC2AF75C7AA75C755F591A20C92AF430D
:10074000C4082275F85075C480E47B10FAF9F8905B
:1007500001A0E0FCA3E0FDA3E0FEA3E0FF1204ADD6
:100760009001A5E0F8A3E0F9A3E0FAA3E0FB1204EE
:10077000ADC3E49FFFE49EFE74019DFDE49CFC7804
:100780000812053F8FC6E47B10FAF9F89001A0E04B
:10079000FCA3E0FDA3E0FEA3E0FF1204AD9001A5E1
:1007A000E0F8A3E0F9A3E0FAA3E0FB1204ADC3E490
:1007B0009FFFE49EFE74019DFDE49CFCEFE48FC569
:1007C000A2AF920CC2AF75C7AA75C755F591A20C1E
:1007D00092AF43C40822A2AF920CC2AF75C7AA75EC
:1007E000C755439F01A20C92AFE4F591EF24F96045
:1007F0000C14600E2402700D75A638800875A630A2
:10080000800375A630E4F5A775AF04A2AF920CC2C1
:10081000AF75C7AA75C75543A401A20C92AF85AEA8
:100820002205A6A2AF920CC2AF75C7AA75C75543E1
:10083000A401A20C92AF85AE23EF24F86003020856
:10084000C0E52225E0FFE52354012FFF54C0F52524
:10085000EF543FF52474F22FFF75AF0C75A601E439
:10086000F5A7A2AF920CC2AFA2AF920CC2AF75C7F0
:10087000AA75C75543AA40A20C92AF75C7AA75C7FF
:100880005543A401A20C92AFE5AE644B600BE5AEFC
:1008900064526005E5AEB45322E524C3940F5017AB
:1008A000E5256440600BE52564806005E525B4C05E
:1008B0000A74F22FFF800474FC2FFFEFC313F5229C
:1008C00075C7AA75C75585228475C7AA75C755858A
:1008D0002385A2AF920CC2AF75C7AA75C755539FA7
:1008E000FEA20C92AF22787FE4F6D8FD9000007F44
:1008F000FF7E04E4F0A3DFFCDEFA75812602093BEB
:100900000209DCE493A3F8E493A34003F68001F228
:1009100008DFF48029E493A3F85407240CC8C333F8
:10092000C4540F4420C8834004F456800146F6DFC7
:10093000E4800B01020408102040809009F0E47E5E
:10094000019360BCA3FF543F30E509541FFEE493BC
:10095000A360010ECF54C025E060A840B8E493A383
:10096000FAE493A3F8E493A3C8C582C8CAC583CAAE
:10097000F0A3C8C582C8CAC583CADFE9DEE780BE66
:10098000A2AF920CC2AF75C7AA75C755E4F591A284
:100990000C92AF53B1BF53B2BF9001A4F0A31205A4
:1009A0005E0001C2007F007E367D6E7C0112062D46
:1009B000D299D20922EFB40A07740D1209C0740A41
:1009C000309811A899B8130CC2983098FDA899C214
:1009D00098B811F63099FDC299F599227F06120751
:1009E000D61209807BFF7A0979F512006E80FE220B
:1009F000C109C10A000A2048656C6C6F20776F72CC
:040A00006C64210001
:00000001FF
