:1000000002072E12007712006453B1F743B208C200
:100010000012094812094F12096A120970C2113000
:10002000000512095D9204300F05C20F12034E3015
:100030000C02C20C300D0CC20D201107D211E4903D
:1000400001C3F0301202C21220000B300405120965
:1000500070800312097330060512096A80C1120903
:100060006D80BC2243C40475C58375C6FF439C02E2
:1000700043A88043C4082253B1EF43B21022C11BEE
:10008000C11C0002053CBB010689828A83E0225024
:1000900002E722BBFE02E32289828A83E49322BB29
:1000A000010CE58229F582E5833AF583E0225006CA
:1000B000E92582F8E622BBFE06E92582F8E222E580
:1000C0008229F582E5833AF583E49322F8BB010D9A
:1000D000E58229F582E5833AF583E8F0225006E9C6
:1000E0002582C8F622BBFE05E92582C8F222BC00A3
:1000F0000BBE0029EF8DF084FFADF022E4CCF87543
:10010000F008EF2FFFEE33FEEC33FCEE9DEC984051
:1001100005FCEE9DFE0FD5F0E9E4CEFD22EDF8F5ED
:10012000F0EE8420D21CFEADF075F008EF2FFFED4D
:1001300033FD4007985006D5F0F222C398FD0FD545
:10014000F0EA22C2D5EC30E709B2D5E4C39DFDE464
:100150009CFCEE30E715B2D5E4C39FFFE49EFE128F
:1001600000EEC3E49DFDE49CFC80031200EE30D55C
:1001700007C3E49FFFE49EFE22C5F0F8A3E028F049
:10018000C5F0F8E582158270021583E038F022E8A8
:100190008FF0A4CC8BF0A42CFCE98EF0A42CFC8A6C
:1001A000F0EDA42CFCEA8EF0A4CDA8F08BF0A42DE9
:1001B000CC3825F0FDE98FF0A42CCD35F0FCEB8E8A
:1001C000F0A4FEA9F0EB8FF0A4CFC5F02ECD39FE40
:1001D000E43CFCEAA42DCE35F0FDE43CFC2275F0B5
:1001E00008758200EF2FFFEE33FECD33CDCC33CC3C
:1001F000C58233C5829BED9AEC99E58298400CF557
:1002000082EE9BFEED9AFDEC99FC0FD5F0D6E4CE84
:10021000FBE4CDFAE4CCF9A88222B800C1B90059B8
:10022000BA002DEC8BF084CFCECDFCE5F0CBF97885
:1002300018EF2FFFEE33FEED33FDEC33FCEB33FB19
:1002400010D703994004EB99FB0FD8E5E4F9FA22A3
:100250007818EF2FFFEE33FEED33FDEC33FCC9339E
:10026000C910D7059BE99A4007EC9BFCE99AF90F66
:10027000D8E0E4C9FAE4CCFB2275F010EF2FFFEED2
:1002800033FEED33FDCC33CCC833C810D7079BEC1D
:100290009AE899400AED9BFDEC9AFCE899F80FD595
:1002A000F0DAE4CDFBE4CCFAE4C8F922EB9FF5F0F8
:1002B000EA9E42F0E99D42F0E89C45F022E8600F9A
:1002C000ECC313FCED13FDEE13FEEF13FFD8F12288
:1002D000E86010ECA2E713FCED13FDEE13FEEF1344
:1002E000FFD8F022ECF0A3EDF0A3EEF0A3EFF022A4
:1002F000A8828583F0D083D08212030712030712ED
:100300000307120307E473E493A3C583C5F0C58311
:10031000C8C582C8F0A3C583C5F0C583C8C582C857
:1003200022D083D082F8E4937012740193700DA3ED
:10033000A393F8740193F5828883E473740293B5F0
:10034000F0067403936860E9A3A3A3A380D82011E7
:100350000302053B9001C3E020E003D38001C3B357
:1003600092069001C3E064016004E0B41205D20477
:1003700002042E9001C3E06004E0B41305C204023D
:10038000042E9001C3E0D39401401FE09412501A50
:10039000E0FFC31314FF9001B6E0FEA80708800237
:1003A000C313D8FC13920402042E9001C3E0B414CA
:1003B00007D20012095680769001C3E0D39414400E
:1003C0006DE094465068300606A2049209805F30C2
:1003D000095C3004599001C3E024EAFFE434FFC310
:1003E00013EF135407FFF87401088002C333D8FCDD
:1003F000FB9001C3E024EAFFE434FFFE7C007D10A3
:1004000012014374B32FF58274013EF583E04BFB78
:100410009001C3E024EAFFE434FFFE7C007D10126B
:10042000014374B32FF58274013EF583EBF0900124
:10043000C3E0C394465004E004F022D2137B017A57
:100440000179B37D021208B79001B5E06F60030235
:1004500004DF9001B3E0D3941A5013E070069001CA
:10046000A5F0800A9001B3E0241D9001A5F0900151
:10047000B4E0B4011E201A67D208E49001B8F090ED
:1004800001A5F09001C4E04408F09001B6E054BF2B
:10049000F0804C9001B4E0B40212200842C20AD2AB
:1004A0001AD2079001C4E054F7F080339001B4E011
:1004B000B403159001C4E020E325E49001B2F0906C
:1004C00001B6E04440F080179001B4E0B40410900D
:1004D00001B2E0C3940240079001B6E054BFF07B44
:1004E000FF7A0979767F077E007D007C001207C8BD
:1004F0009001B3E0FFE4FCFDFE12066C7F0A1209D6
:10050000137BFF7A09797E7F077E007D007C0012D5
:1005100007C89001B4E0FFE4FCFDFE12066C7F0A00
:10052000120913E49001B3F0A3F0A3F09001C3F01B
:10053000C211D206C20012094FD20422C0E0C08309
:10054000C082C0D075D000C007C0919001B9E0044E
:10055000F0E0C39410500302062AE4F0D20F900199
:10056000C8E004F0A3E004F09001AAE004F0A3E0E6
:1005700004F09001C8E094054033D202E4F0300B5F
:10058000149001A6E094115005E004F08007C20B1E
:100590009001A6E4F03007159001CBE0C3941E5003
:1005A00005E004F08007C2079001CBE4F09001C998
:1005B000E0C3940A405AD205E4F09001BEE004F092
:1005C000E09432404BD212E4F09001C0E004F0A37A
:1005D000E004F0A3E004F09001AFE004F09001C06B
:1005E000E094024004E4F0D2149001C1E0C394030B
:1005F0004004E4F0D2159001C2E0C394054004E445
:10060000F0D2179001AFE0C3943C4004E4F0D20E66
:100610009001AAE0C394324004D20CE4F09001AB04
:10062000E0C394644004D20DE4F09001CAE004F009
:10063000E0C394604002E4F030030E9001BAE0FFA2
:100640009001CAE0B50702C203A2AF921EC2AF7505
:10065000C7AA75C755759100A21E92AF53C4EFD0BB
:1006600091D007D0D0D082D083D0E0329001CD128B
:1006700002E4E4FF7BE87A03F9F89001CDE0FCA303
:10068000E0FDA3E0FEA3E0FF12021AEF2430FF1208
:1006900009137FC87E00120856E47BE87A03F9F854
:1006A0009001CDE0FCA3E0FDA3E0FEA3E0FF120279
:1006B0001AAC00AD01AE02AF03E47B64FAF9F812A4
:1006C000021AEF2430FF1209137FC87E0012085669
:1006D000E47B64FAF9F89001CDE0FCA3E0FDA3E02F
:1006E000FEA3E0FF12021AAC00AD01AE02AF03E4BC
:1006F0007B0AFAF9F812021AEF2430FF1209137F6D
:10070000C87E00120856E47B0AFAF9F89001CDE0A1
:10071000FCA3E0FDA3E0FEA3E0FF12021AAF03EF8B
:100720002430FF1209137FC87E0012085622787FFA
:10073000E4F6D8FD9000007FFF7E04E4F0A3DFFC28
:10074000DEFA758124020783020003E493A3F8E430
:1007500093A34003F68001F208DFF48029E493A319
:10076000F85407240CC8C333C4540F4420C8834032
:1007700004F456800146F6DFE4800B010204081001
:1007800020408090007EE47E019360BCA3FF543F34
:1007900030E509541FFEE493A360010ECF54C02539
:1007A000E060A840B8E493A3FAE493A3F8E493A329
:1007B000C8C582C8CAC583CAF0A3C8C582C8CAC58D
:1007C00083CADFE9DEE780BE9001CDEBF0A3EAF05B
:1007D000A3E9F0A31202E49001D41202F000000099
:1007E000009001D41202F0000000009001D0E0FC63
:1007F000A3E0FDA3E0FEA3E0FFA3E0F8A3E0F9A3DC
:10080000E0FAA3E0FBC31202AC504A9001D4E0A38B
:10081000E0A3E0FEA3E0FF9001CDE0FBA3E0FAA39C
:10082000E0F98F828E8312009FFF1209137FC87E2A
:10083000001208569001D4E0FCA3E0FDA3E0FEA363
:10084000E02401FFE43EFEE43DFDE43CFC9001D4E5
:100850001202E48096229001D8EEF0A3EFF043C993
:10086000209001D8E0FEA3E0FFFBE4C374FF9BFFF0
:1008700074FF9EFEE49400FDE49400FCEFE48FCC52
:100880009001D8E0FEA3E0FFFBE4C374FF9BFF747C
:10089000FF9EFEE49400FDE49400FC78081202D070
:1008A0008FCD43C804E5C8C4131313540130E0F5D9
:1008B00053C87F53C8FB229001CDEBF0A3EAF0A30D
:1008C000E9F0A3EDF0E4A3F0FC9001D0E0FFECC36D
:1008D0009F503A9001CDE0FBA3E0FAA3E0F91200AB
:1008E00086FF7E089001D1E0FD6F5401FBEDC3133C
:1008F000F0AD03ED6004E0648CF0EFC313FFDEE4C1
:100900009001CEE475F0011201790C80BC9001D108
:10091000E0FF22A9071209677F517E00120856E402
:10092000FAE930E00512096480031209677F517EFD
:1009300000120856E9C313F90AEAB408E41209647C
:100940007F517E001208562253B1FB43B20422535A
:10095000B3BF43B4402243B34053B4BF22A29692E4
:1009600020A22022D28422C28422D28222C28222C7
:10097000D29622C2962264617461313A2000646189
:060980007461323A200010
:00000001FF
